:1000000024C03EC03DC03CC03BC022C239C038C045
:1000100037C036C035C034C033C032C031C0010231
:100020000000040000000000010204081020200469
:100030001008020202020202020202020000000094
:100040003800000000003700020011241FBECFE579
:10005000D2E0DEBFCDBF10E0A0E6B0E0E6E8FFE012
:1000600002C005900D92A637B107D9F720E0A6E7A8
:10007000B0E001C01D92A738B207E1F73FD381C7B6
:10008000BFCF80E09FD2843691056CF08A3F910506
:100090006CF0803921E0920764F08835924064F476
:1000A00082E090E0089581E090E0089580E090E0A3
:1000B000089583E090E008958FEF9FEF0895CF9229
:1000C000DF92EF92FF920F931F93CF93DF930AD2A9
:1000D0006B017C0108EE13E0D4DFEC01801791077F
:1000E00019F000D26B017C01FDD16C197D098E09DC
:1000F0009F096E3171058105910510F48E01ECCFD9
:10010000CE01DF91CF911F910F91FF90EF90DF9083
:10011000CF900895D4DF97FFFDCF0895D0DF97FDEE
:10012000FDCF089560E081E07BD260E082E078D28C
:1001300060E084E075D21092640008951F93CF931D
:10014000DF93EC01809164008111ECDFCC0FDD1FA7
:10015000CA59DF4F188161E0812F62D261E0812F9F
:1001600098D2C98161E08C2F5BD260E08C2F91D254
:1001700081E080936400DF91CF911F910895AF9249
:10018000BF92CF92DF92EF92FF920F931F93CF9384
:10019000DF9300D000D01F92CDB7DEB7CE0101961D
:1001A0007C0100E010E0C801D6D6F70181937F0101
:1001B0000F5F1F4F04301105B1F7C980DA80EB8063
:1001C000FC80FFEFCF1ADF0AEF0AFF0AC982DA824A
:1001D000EB82FC82CE0101965C0100E010E0F501AB
:1001E00061915F01C8016D83B6D66D81681711F00A
:1001F000C801B9D60F5F1F4F0430110581F7C70141
:10020000B6010F900F900F900F900F90DF91CF914C
:100210001F910F91FF90EF90DF90CF90BF90AF9024
:10022000FFC32FDF97FF13C064E070E080E090E031
:10023000FED3CB0183DF68EC70E080E090E082D1F8
:1002400071DF62E370E080E090E07CD1EACF62CFC2
:100250004F925F926F927F928F929F92AF92BF92D6
:10026000CF92DF92EF92FF920F931F93CF93DF9382
:10027000CDB7DEB7A0970FB6F894DEBF0FBECDBFE7
:10028000C12CD12C80E8E82E8FE3F82EA12CB12CC4
:1002900064E070E080E090E0CAD3462FB501CE0163
:1002A0000196A9D08FEFA81AB80A00E010E0B801B3
:1002B000CE010196BBD0882E912CC4013FDF60E0B7
:1002C000C40183D020E030E04AEF53E4C701B60117
:1002D000B3D435D42B013C0135D124DF8AD020E0C2
:1002E00030E048E453E4C701B601A6D428D42AD1AB
:1002F0000F5F1F4F0A151B05D4F2812C912CB401FE
:10030000CE01019693D0082F09DF10E008171907D6
:10031000B1F014DF60E0C80158D068EC70E080E014
:1003200090E010D1C8010ADF61E0C8014ED060E260
:1003300073E080E090E006D15CD010E012C0C8010C
:10034000FDDE60E0C80141D0C301B201FBD0EADEAE
:1003500050D0E0DE8FEF881A980A8A149B047CF252
:1003600011E064EF71E080E090E0ECD02DEC3CEC2B
:100370004CEC5EE3C701B6017DD32AE939E949E1D6
:100380005EE35AD49B01AC01C701B60173D36B0184
:100390007C0111117DCFBEDEA0960FB6F894DEBFB2
:1003A0000FBECDBFDF91CF911F910F91FF90EF90C6
:1003B000DF90CF90BF90AF909F908F907F906F9085
:1003C0005F904F9008952DDF43CFFC01EE0FFF1F8C
:1003D000E259FF4F80819181662319F062E070E05D
:1003E00002C061E070E093D420E030E0A90183E036
:1003F0008FC183E002C3FB01F695E795F695E7957B
:100400006370660FE80FF91F83E090E0062E01C0CD
:10041000880F0A94EAF7809590818923437001C080
:10042000440F6A95EAF7482B40830895FB01F6953F
:10043000E795F695E795E80FF91F808190E06370E6
:10044000660F02C0959587956A95E2F783700895C7
:100450001F920F920FB60F9211242F933F938F93F9
:100460009F93AF93BF938091770090917800A09174
:100470007900B0917A003091760026E0230F2D3775
:1004800020F40296A11DB11D05C029E8230F039693
:10049000A11DB11D20937600809377009093780082
:1004A000A0937900B0937A0080917B0090917C00BA
:1004B000A0917D00B0917E000196A11DB11D809399
:1004C0007B0090937C00A0937D00B0937E00BF9151
:1004D000AF919F918F913F912F910F900FBE0F90F1
:1004E0001F9018952FB7F89460917700709178005D
:1004F0008091790090917A002FBF08953FB7F894CA
:1005000080917B0090917C00A0917D00B0917E0055
:1005100022B708B601FE05C02F3F19F00196A11DB4
:10052000B11D3FBF6627782F892F9A2F620F711D4B
:10053000811D911D43E0660F771F881F991F4A9503
:10054000D1F70895CF92DF92EF92FF92CF93DF938E
:100550006B017C01D3DFEB01C114D104E104F10490
:1005600079F087D2CBDF6C1B7D0B683E7340A0F324
:1005700081E0C81AD108E108F108C851DC4FECCF7E
:10058000DF91CF91FF90EF90DF90CF900895789416
:100590008AB582608ABD8AB581608ABD83B7826070
:1005A00083BF83B7816083BF89B7826089BF80B70B
:1005B000826080BF80B7816080BF329A319A309864
:1005C000379A0895863008F08650877090917F00A2
:1005D0009295990F990F907C982B97B9369A3699E6
:1005E000FECF84B125B190E0922B0895823081F046
:1005F00018F4813051F00895833019F0843009F0F7
:1006000008958CB58F7D8CBD08958AB58F7702C013
:100610008AB58F7D8ABD08958CB580648CBD0895A0
:10062000CF93DF9390E0FC01E85DFF4F2491FC0144
:10063000EE5CFF4F8491882349F190E0880F991F69
:10064000FC01EE5BFF4FA591B491845C9F4FFC01D0
:10065000C591D4919FB7611108C0F8948C912095F1
:1006600082238C93888182230AC0623051F4F894EB
:100670008C91322F309583238C938881822B8883B1
:1006800004C0F8948C91822B8C939FBFDF91CF9103
:1006900008950F931F93CF93DF931F92CDB7DEB7CB
:1006A000282F30E0F901E25EFF4F8491F901E85D07
:1006B000FF4F1491F901EE5CFF4F04910023C1F04C
:1006C000882319F0698392DF6981E02FF0E0EE0F53
:1006D000FF1FE45CFF4FA591B4919FB7F8948C91F4
:1006E000611103C01095812301C0812B8C939FBFA2
:1006F0000F90DF91CF911F910F91089548DF8CDF0C
:100700003EDDC0E0D0E05FDE2097E9F379DCFBCF8F
:100710003F924F925F926F927F928F929F92AF9291
:10072000BF92CF92DF92EF92FF920F931F93CF93DE
:10073000DF9300D000D0CDB7DEB78B0129013A019D
:1007400090916500981721F09F3F09F03CC104C0CB
:10075000E8E4F0E034902CC080936500E8E4F0E039
:10076000E491EF3F09F42FC1E11121C01ABC13BE7F
:100770009AB592609ABD93B7916093BF282F30E0ED
:10078000F901EE5CFF4FE491F0E0EE0FFF1FE45C37
:10079000FF4F459154915093860040938500F90195
:1007A000E85DFF4F249120938400312C03C03E2E3E
:1007B00037FC09C161E034DF4801A12CB12C832D45
:1007C0008D7F09F0B7C060E079E08DE390E0A5018E
:1007D0009401D3D229833A834B835C8369017A01E4
:1007E00081E0C81AD108E108F1089FEFC916D104C9
:1007F000E104F10409F008F495C060E271EA87E0D1
:1008000090E0A5019401B9D269017A01E1E0CE1A24
:10081000D108E108F108F2E03F1218C08FEFC816C6
:10082000D104E104F10409F008F4A6C068E478EE0C
:1008300081E090E0A5019401A0D269017A0191E0E4
:10084000C91AD108E108F10883E001C082E0EFEFA6
:10085000CE16D104E104F10409F008F464C064E2A6
:1008600074EF80E090E0A501940187D269017A01DC
:10087000F1E0CF1AD108E108F1083320D9F082E085
:1008800038121AC09FEFC916D104E104F10409F02F
:1008900008F472C062E17AE780E090E0A50194017B
:1008A0006CD269017A01E1E0CE1AD108E108F108C1
:1008B00085E003C083E001C084E0FFEFCF16D104E0
:1008C000E104F10481F178F169E07DE380E090E0FA
:1008D000A501940152D269017A0181E0C81AD108B8
:1008E000E108F108311002C084E001C086E09FEF0A
:1008F000C916D104E104F104B1F0A8F0C980DA808E
:10090000EB80FC809AE0F594E794D794C7949A958D
:10091000D1F7E1E0CE1AD108E108F10831102CC07E
:1009200085E003C081E0311027C093B7987F982BF2
:1009300093BF22C060E079E08DE390E0A5019401CF
:100940001CD269017A01F1E0CF1AD108E108F1085F
:10095000C114D10481E0E806F10470F064E274EFA0
:1009600080E090E0A501940108D269017A0191E04C
:10097000C91AD108E108F108411451046104710455
:1009800081F0B801660F771F80E090E0A30192012B
:1009900012D2B901CA0128EE33E040E050E0CBD1D9
:1009A00003C02FEF3FEFA901E1E03E120CC0CEBC27
:1009B0002093800030938100409382005093830005
:1009C00089B7806489BF0F900F900F900F90DF91CF
:1009D000CF911F910F91FF90EF90DF90CF90BF903C
:1009E000AF909F908F907F906F905F904F903F90CF
:1009F0000895811101C019BE0895CF93C82F809129
:100A000065008C1307C0E8E4F0E084919FEF9093B9
:100A1000650001C08FEFEDDF60E08C2FCF9139CE04
:100A2000611571058105910509F08CC20895CF9378
:100A3000DF9300D000D0CDB7DEB79B01AC016115CC
:100A400071058105910559F069833A834B835C8375
:100A500075D229813A814B815C818FD103C060E0DE
:100A600070E0CB010F900F900F900F90DF91CF911E
:100A7000089508955058BB27AA270ED0A3C094D03C
:100A800030F099D020F031F49F3F11F41EF489C06A
:100A90000EF4E095E7FB7FC0E92FA5D080F3BA17ED
:100AA000620773078407950718F071F49EF5BDC0BF
:100AB0000EF4E0950B2EBA2FA02D0B01B901900179
:100AC0000C01CA01A0011124FF27591B99F0593FBD
:100AD00050F4503E68F11A16F040A22F232F342F05
:100AE0004427585FF3CF469537952795A795F04053
:100AF0005395C9F77EF41F16BA0B620B730B840B68
:100B0000BAF09150A1F0FF0FBB1F661F771F881F1F
:100B1000C2F70EC0BA0F621F731F841F48F4879577
:100B200077956795B795F7959E3F08F0B3CF939566
:100B3000880F08F09927EE0F9795879508955BD059
:100B400088F09F5790F0B92F9927B751A0F0D1F0B6
:100B5000660F771F881F991F1AF0BA95C9F712C040
:100B6000B13081F062D0B1E008955FC0672F782F77
:100B70008827B85F39F0B93FCCF3869577956795AC
:100B8000B395D9F73EF490958095709561957F4F18
:100B90008F4F9F4F089597F99F6780E870E060E05E
:100BA00008959FEF80EC089500240A941616170606
:100BB00018060906089500240A941216130614064E
:100BC00005060895092E0394000C11F4882352F0B1
:100BD000BB0F40F4BF2B11F460FF04C06F5F7F4F69
:100BE0008F4F9F4F089557FD9058440F551F59F050
:100BF0005F3F71F04795880F97FB991F61F09F3F0A
:100C000079F087950895121613061406551FF2CF32
:100C10004695F1DF08C0161617061806991FF1CF82
:100C200086957105610508940895E894BB276627A9
:100C30007727CB0197F908950AD0C4CFB5DF28F004
:100C4000BADF18F0952309F0A6CFABCFEFCFCBDFFB
:100C5000A8F39923D9F35523C9F3950F50E0551FF5
:100C6000AA27EE27FF27BB2700240894679520F4C6
:100C7000E20FF31FB41F0A1E220F331F441FAA1FC7
:100C80006695A9F7779530F4F30FB41F0A1E121E6C
:100C900008F46395330F441FAA1F221F769599F716
:100CA000879520F4B40F0A1E121E631F440FAA1F5B
:100CB000221F331F8695A9F7862F712D602D1124D1
:100CC0009F5750408AF0E1F088234AF0EE0FFF1F53
:100CD000BB1F661F771F881F91505040A9F79E3F8A
:100CE000510570F058CFA2CF5F3FECF3983EDCF394
:100CF000869577956795B795F795E7959F5FC1F7C7
:100D0000FE2B880F911D9695879597F90895AA1B3C
:100D1000BB1B51E107C0AA1FBB1FA617B70710F0E6
:100D2000A61BB70B881F991F5A95A9F78095909518
:100D3000BC01CD010895A1E21A2EAA1BBB1BFD0127
:100D40000DC0AA1FBB1FEE1FFF1FA217B307E407AA
:100D5000F50720F0A21BB30BE40BF50B661F771F02
:100D6000881F991F1A9469F76095709580959095E2
:100D70009B01AC01BD01CF010895052E97FB16F430
:100D800000940FD057FD05D0D6DF07FC02D046F403
:100D900008C050954095309521953F4F4F4F5F4F7C
:100DA000089590958095709561957F4F8F4F9F4FD7
:100DB000089568940013E894A0E0B0E0E1EEF6E056
:100DC0001DC0EFEFE7F959016A015E23550FEE08E8
:100DD000FE2C87019B01AC019E23990F660B762F99
:100DE000CB013BD0CDB7DEB7EAE024C02F923F92D3
:100DF0004F925F926F927F928F929F92AF92BF922B
:100E0000CF92DF92EF92FF920F931F93CF93DF93D6
:100E1000CDB7DEB7CA1BDB0B0FB6F894DEBF0FBE33
:100E2000CDBF09942A88398848885F846E847D8480
:100E30008C849B84AA84B984C884DF80EE80FD8082
:100E40000C811B81AA81B981CE0FD11D0FB6F894F8
:100E5000DEBF0FBECDBFED010895DF93CF939F920C
:100E6000A0E49A2E0024D001E001F0011695079528
:100E7000F794E794D794C794B794A79448F410686C
:100E8000A20FB31FC41FD51FE61FF71F081E191E90
:100E9000220F331F441F551F661F771F881F991F7E
:100EA0009A9421F79D01AE01BF01C00111249F90CA
:100EB000CF91DF910895A0E0B0E0E0E6F7E09CCFAD
:100EC000EC01688179818A819B81611571058105B9
:100ED000910521F464E279ED8BE597E02DE133EFA4
:100EE00041E050E04ADF49015A0127EA31E440E09D
:100EF00050E05FDF69017A01C501B4012CEE34EFE7
:100F00004FEF5FEF56DF89019A01C00ED11EE21E3E
:100F1000F31EF7FE06C081E0C81AD108E10880E898
:100F2000F80AC882D982EA82FB82C701B6019F779C
:100F3000CDB7DEB7ECE07CCFBEDF089580E690E071
:100F4000BADF08956093600070936100809362003F
:100F5000909363000895E199FECF9FBB8EBBE09A0A
:100F600099278DB30895262FE199FECF1CBA9FBB18
:100F70008EBB2DBB0FB6F894E29AE19A0FBE019694
:060F80000895F894FFCF74
:100F86000100000001FF0102020102040402060141
:060F960026014A015D0185
:00000001FF
